:020000040800F2
:1000000000000520CD330208B1070108B30701083D
:10001000B5070108B7070108B9070108000000008B
:100020000000000000000000000000002155010851
:10003000BB07010800000000C15501082556010852
:100040001D3402081D3402081D3402081D34020844
:100050001D3402081D3402081D3402081D34020834
:100060001D3402081D3402081D3402081D34020824
:100070001D3402081D3402081D3402081D34020814
:100080001D3402081D3402081D3402081D34020804
:100090001D3402081D3402081D3402081D340208F4
:1000A0001D3402081D3402081D3402081D340208E4
:1000B0001D3402081D3402081D3402081D340208D4
:1000C0001D3402081D3402081D3402081D340208C4
:1000D0001D3402081D3402081D3402081D340208B4
:1000E0001D3402081D3402081D3402081D340208A4
:1000F0001D3402081D3402081D3402081D34020894
:100100001D3402081D3402081D3402081D34020883
:100110001D3402081D340208BD0701081D34020801
:100120001D3402081D3402081D3402081D34020863
:100130001D3402081D3402081D3402081D34020853
:100140001D3402081D3402081D3402081D34020843
:100150001D3402081D3402081D3402081D34020833
:100160001D3402081D3402081D3402081D34020823
:100170001D3402081D3402081D340208000000006E
:100180001D3402081D3402081D3402081D34020803
:100190001D3402081D3402081D3402081D340208F3
:1001A000C90701081D340208D50701081D340208DB
:1001B0001D3402081D3402081D3402081D340208D3
:0801C0001D3402081D34020881
:1002000010B5054C237833B9044B13B10448AFF350
:1002100000800123237010BD780A00200000000038
:100220006464040808B5034B1BB103490348AFF3EA
:10023000008008BD000000007C0A002064640408FF
:10024000F0B44C1E05464E2C3FD8DFE804F03B3B93
:100250003B3B3E3E3E3E28283B282828282828288D
:1002600028282828283E29292929292929293B28DD
:10027000282828283E28293C3B3E3B29293C3E3E55
:100280002828283B3B3B3B3B283B3B283B3E3E282A
:1002900028283E3E3E2828283B293B292900A2B198
:1002A000D5E90540844210DA2F692601B8190134D6
:1002B0004FF0000CC0F804C06C61B955C0E90223CE
:1002C000F0BC70470AB1002BEAD10020F0BC7047A7
:1002D00010B4C3681C78522C0A460FD04F2C03D0A0
:1002E00008465DF8044B7047016B03310163202120
:1002F0000133C3605DF8044B0023A1E7016B0231B9
:1003000001631F21F4E700BF002A4ED070B50546F7
:100310000E4614462378013B4E2B2CD8DFE803F021
:10032000373737402B2B282837373737373737378A
:10033000373737373737372B373737373737373759
:100340003737303037372B373737372C3737373762
:100350002B28373737373737373737373737372B54
:100360002B372C2C2C2C2B37373737373737370098
:10037000E468002CCED170BDA468002CCAD1FAE785
:10038000A2681378052B03D1336801333360A26868
:1003900031462846FFF7B8FFE468002CBAD1EAE7F7
:1003A0002B6801332B60A268F2E770479AB32DE9FE
:1003B000F0418E180446D0F80031013E4D1E002752
:1003C00016E0D4F80831D4F80C2184F8FF7098476F
:1003D000D4F8243100220133C4F82431B5424FF05F
:1003E0000103C4F8003104F8028084F8048110D0BD
:1003F000FF2B1946204615F8018FE2D01A46B54268
:1004000003F10103C4F8003104F8028084F8048188
:10041000EED1BDE8F0817047A0F11C03042B07D991
:100420004C2805D04E3801288CBF00200120704791
:100430000120704770B4026811786E2918D0A1F1BC
:100440003003092B1ED800260023013203EB83035F
:10045000026001EB43041178A1F13005092DA4F1EC
:100460003003F2D90EB1C4F13003184670BC7047A6
:10047000531C03605178A1F13002092A02D81A46B0
:100480000126E1E70023184670BC7047D0E9053229
:10049000934270B50EDA01691A018C1801330026F7
:1004A000412566600C3083608D54FFF7C3FFA06068
:1004B000204670BD0024204670BD00BF10B5C36843
:1004C0001A785F2A04460DD06E2A0DD00C30FFF743
:1004D000B1FF013008D4E3681A785F2A04D10133F0
:1004E000E36010BD0020FAE74FF0FF3010BD00BF01
:1004F000F8B5C3681A78542A19D10133C360044689
:10050000FFF7DCFF051E12DBD4E90531A26A8B423E
:1005100002F10102A2620ADA21691A018818013384
:1005200000270526476063618E548560F8BD002072
:10053000F8BD00BF2DE9F04104460C30FFF77AFF0B
:10054000071E49DDE56863685B1B9F4242DCA268C9
:10055000EB195207E36004D5EA5D242A04BF013396
:10056000E360092FD4E9056810DCB04532DD21696C
:1005700032018818013600234360666155B3436039
:100580008B54C0E90257E062BDE8F08108221449AB
:10059000284640F0B3FE0028E7D12B7A2E2B03D05B
:1005A0005F2B01D0242BE0D16B7A4E2BDDD1236B56
:1005B0001633DF1BB04527630CDD2269094D33017B
:1005C000D0180021013666614160D1541523C0E97D
:1005D0000253D8E70020D6E70020BDE8F08100BF35
:1005E00040D404084CD4040870B5C368C66A1A78AD
:1005F000422A04460D460FD10133E3602046FFF73F
:1006000099FF2A4603464B212046FFF719FEE3686F
:100610001A78422A0546EFD0E662284670BD00BF30
:100620002DE9F8430546C0680378532B31D1431CAC
:10063000EB604278A2B3831CEB6042785F2A00F043
:100640008980A2F13004E3B2092B25D800210EE005
:10065000303B99421DD8E9680A78481C22B1E8600D
:100660000A785F2A00F08280A2F130041946E4B2D1
:1006700001EBC103092CA2F1410002EB8303E7D98E
:10068000192806D801EBC10302EB8303373B9942DB
:10069000E1D90020BDE8F883A2F14103192BD5D997
:1006A000AB6803F00803002B14BF0124002401D120
:1006B00000295DD1354B7421914203F1C40005D06E
:1006C0001C338342E5D219789142F9D15869D5E9B2
:1006D0000521A8B18A4257DAD5F810C0D3F818E03E
:1006E00017010CEB070601324FF000094FF0180814
:1006F000C6F804906A610CF80780C6E9020EEE6243
:10070000002C3CD1D3E901642B6B914223442B6331
:1007100038DD29691301C81801324FF0000C182781
:10072000C0F804C06A61CF54C0E90264EB681B786A
:10073000422BAFD101462846FFF756FF0028A8D02C
:10074000D5E908329342A5DAE9695A1C41F8230039
:100750002A629FE700232A6A9A429AD9AA6AE9691B
:100760000132AA6251F82300BDE8F8830133F2E7B1
:10077000EB681B78433B012B98BF0C469AE7D3E903
:100780000364C1E70020D1E70026B8E7C06404088D
:10079000C3681A785F2A01D00120704710B55A1C2F
:1007A000044640F80C2F5A785F2A04D0FFF742FE27
:1007B000C043C00F10BD0233E360FFF73BFE0028CB
:1007C00005DB092807DDE3681A785F2A01D00020DD
:1007D00010BD0133E360012010BD00BF70B103788C
:1007E0002F2B0FD1002904DC09E003782F2B09D12E
:1007F00031B1C06801390028F7D17047704701D185
:100800008068704700207047D0F8103133B1096814
:100810005B680029DB6804DB1846DFE70122C0F8CB
:1008200018211846704700BF002942D038B5054648
:100830000C4623784B2B27D8DFE803F02E262626FC
:1008400026302E2B2B26262626262626262626262C
:10085000262626262E262626262626262626262630
:100860002626262E262626262E262626262E2B260B
:100870002626262626262626262626262E2E262608
:10088000262E2E2E26262E2EA1682846FFF7CCFFD8
:1008900018B9E468002CCCD1002038BD04F108015F
:1008A0002846FFF7B1FF0028F6D003782F2BF3D1AD
:1008B00038BD0020704700BF2DE9F0411446D4E94F
:1008C000025752684B1C1344AB4282B00E4680461E
:1008D00014D817B102B0BDE8F081D4E90003324664
:1008E0004146184407F094FFD4E9003233449F5442
:1008F00063681E44666002B0BDE8F081002FE9D154
:100900001DB9022B4FF0020502D96D00AB42FCD895
:100910002946206840F016FE28B1E7682060A560EF
:10092000002FD7D1D9E70190206840F03BFA019B16
:100930000122C4E90033C4E90232CBE738B50446EA
:1009400029B9C3681A7832B15A1CC260197868296B
:1009500012D0762901D0002038BD04F10C052846BC
:10096000FFF768FDE3681A785F2AF4D10133E3608A
:100970002846FFF75FFD03E004F10C00FFF75AFD86
:10098000E3681A785F2AE6D10133E360012038BDBD
:100990002DE9F04188B00A4604461C4901A840F000
:1009A000E3FF01A808F04CF968B301ADD4F80031B9
:1009B0002E18002716E0D4F80831D4F80C2184F85A
:1009C000FF709847D4F8243100220133C4F8243151
:1009D000AE424FF00103C4F8003104F8028084F8FD
:1009E000048110D0FF2B1946204615F8018BE2D068
:1009F0001A46AE4203F10103C4F8003104F8028044
:100A000084F80481EED108B0BDE8F08164D4040814
:100A10002DE9F04FC3681D7883B000228D42044653
:100A2000019200F09981DFF8C094884601AF01255A
:100A3000666B65631A784C2A5CD0542A66D0732A98
:100A400045D0662A1CD15A78702A00F0878020464B
:100A500001F070FA0546002800F08C810378312BF4
:100A600000F09880322B56D0332B71D1E3681A787E
:100A70005F2A00F0DA81204600F038FA0346C1E030
:100A8000A2F13001092900F2E780204601F0FEFBC7
:100A90000546002800F06E81E3681A78492A00F0C4
:100AA000B88066632A4600232E212046FFF7C8FB44
:100AB000386030B3E3681A78424500F10C07B6D1CC
:100AC0000133019DE360284603B0BDE8F08F5A78FA
:100AD000722A00F0AB80702AB9D10233E36020465D
:100AE00000F004FA002302464A212046FFF7A8FB43
:100AF000054603E0204602F013F805466663002D24
:100B0000D0D10025284603B0BDE8F08F2046FFF77E
:100B1000EFFC0546F2E78368032B19D801A252F8CF
:100B200023F000BFB70C0008770A0008510B00083B
:100B3000510B0008742A8AD15B786C2B87D1204630
:100B400000F0FEFDE3685A780546002A40F0238154
:100B500000252846666303B0BDE8F08F9A1CE2606A
:100B60009A78542A40F082800333E3600020D4E96D
:100B700005329342ECDA21691A018D1801334FF0E6
:100B8000000E4FF0060CC5F804E0636101F802C0E6
:100B9000A86086E7D0F808B0236BDBF80820DBF804
:100BA00000A0023A134423635046494607F0DCFE96
:100BB000002800F0E480DBF80CB0BBF1030FC7D8CD
:100BC000DFE81BF079000400F70081009AF800309C
:100BD000702B65D06D2B63D04FF0000B5046BD4994
:100BE00007F0C2FE002840F0C080204600F090FBD5
:100BF0000346BBF1000F05D01A4638212046FFF707
:100C00001FFB03462A4636212046FFF719FB0546FF
:100C100074E70133E360204600F07AFB2A4603467E
:100C200004212046FFF70CFB054667E70233E3602B
:100C3000204600F085FD8246204601F027FBE36850
:100C40001A78492A83461ED0034629465246204632
:100C5000FFF7F6FA054651E76F2A40F094805A787C
:100C60006E2A7FF4F4AE0233E3600EE72046FFF70E
:100C700025FC6FF0004398423FF46AAF431C3FF4F9
:100C800067AF013073E70133E360204600F040FBBB
:100C90005A46034604212046FFF7D2FA0346D4E71A
:100CA0009AF801209A4297D1E3681A785F2A95D181
:100CB0000133E36090E72A46002335212046FFF701
:100CC000BFFA05461AE7BAF1000F3FF441AF824977
:100CD000504607F049FE002800F0C7809AF800301F
:100CE000662B00F0ED806E2B7FF432AF9AF8013066
:100CF000772B02D0612B7FF42BAF5F212046FFF7CB
:100D000087FE8246204600F01BFDE3681A78452ADC
:100D1000834600F08680702A00F0C680692A7FF43E
:100D200017AF5B786C2B7FF413AF204600F0DEF832
:100D300003465A463B212046FFF782FA52460346B5
:100D40003A212046FFF77CFA2A46034639212046FD
:100D5000FFF776FA0546D1E60133C3602E2113462C
:100D600003B0BDE8F04FFFF76BBA204600F0BEF8C5
:100D700003463EE72846666303B0BDE8F08F204691
:100D800000F0DEFC3DE7692A7FF4D4AE5A786C2A85
:100D90007FF45DAE00250233E36045212046FFF776
:100DA00037FE2A46034630212046FFF749FA05461A
:100DB000A4E6BAF1000F3FF4CBAEAB681B685A78DB
:100DC000632A3AD09AF80030662B49D1204601F0C8
:100DD000B1F883464149504607F0C6FD002839D096
:100DE0003F49504607F0C0FD28B150463D4907F045
:100DF000BBFD002868D1204601F048FAE3681A7864
:100E0000492A824643D053465A4638212046FFF7A6
:100E100017FA2A46034637212046FFF711FA0546FE
:100E20006CE60133E360002383E70133E36045218F
:100E30002046FFF7EDFD0346E4E61B78A3F16302CD
:100E4000012A02D9723B012BBCD8204600F078FC65
:100E50008346BFE745212046FFF7DAFD8246D2E709
:100E6000204600F043F88346B4E7204600F03EF801
:100E70008246204600F03AF88346204600F036F8D5
:100E8000034600287FF455AF666305461BE6013331
:100E9000E360204600F03CFA524603460421204617
:100EA000FFF7CEF98246AEE75A78692A7FF450AE52
:100EB0000233E36045212046FFF7AAFD034638E7E9
:100EC000204601F037F8D3E7204600F00FF88246BD
:100ED00099E700BF68D4040878D404086CD40408E7
:100EE00070D4040874D4040884D90408C1680B7849
:100EF0004C2B67D0542B67D0732B2DE9F04104465F
:100F00001CD0662B3DD14B78702B1DD18B1CC36040
:100F10008B78542B40F09A800331C1600020D4E9D3
:100F2000053293424ADA21691A018D1801330027EC
:100F300006266F6063618E54A8602FE04B78722B99
:100F40006ED0702B00F06081204600F0F3FF054664
:100F5000A0B30378312B39D0322B00F02781332B0B
:100F60002CD1E3681A785F2A00F076812046FFF7DB
:100F7000BDFF03462A4620463621BDE8F041FFF773
:100F80005FB9A3F13002092A41D8204601F07EF969
:100F9000054698B1E3681A78492A2BD02846BDE85F
:100FA000F081742BD0D14B786C2BCDD100F0C8FBE5
:100FB000E1684B780546002B40F0908100252846DB
:100FC000BDE8F08101F0ACBDFFF792BA8768236BF2
:100FD000BA683E68C849023A13442363304607F0B2
:100FE000C3FC00285BD0FF68032FE7D8DFE807F0D9
:100FF0005C38A7640133E360204600F089F92A4693
:10100000034604212046BDE8F041FFF719B96F2BD4
:1010100040F05C814B786E2B96D10231C160B4E711
:101020000231C16000F08CFB0546204601F02EF92C
:10103000E36819784929064600F0D98003462A4614
:1010400020460121BDE8F041FFF7FAB8FFF736FA74
:10105000C34333F0004318BF01307FF460AFADE706
:10106000002E83D03378702B00F0B0806D2B00F011
:10107000AD8000273046A14907F076FC002840F0FB
:10108000B180204600F044F90346002F3FF472AFD0
:101090001A4638212046FFF7D3F803466AE7204670
:1010A00000F04EFB034665E72A4620460023352123
:1010B000BDE8F041FFF7C4B89149304607F054FC51
:1010C000002800F0D1803378662B00F0F6806E2B7C
:1010D0007FF474AF7378772B02D0612B7FF46EAFFF
:1010E0005F212046FFF794FC0646204600F028FBCF
:1010F000E36819784529074600F0AA80702900F0B6
:10110000D08069297FF45AAF5B786C2B7FF456AF9F
:101110002046FFF7EBFE03463A463B212046FFF709
:101120008FF8324603463A212046FFF789F82A46CF
:10113000034639212046BDE8F041FFF781B8002E73
:101140003FF43CAFAB681B685A78632A68D03378A9
:10115000662B78D1204600F0EDFE074669493046FF
:1011600007F002FC002868D06749304607F0FCFB16
:1011700030B13046654907F0F7FB002840F0A18008
:10118000204601F083F8E3681A78492A06467BD0A6
:1011900033463A4638212046FFF752F82A4603469E
:1011A00037212046BDE8F041FFF74AB88368032B9A
:1011B0003FF604AF01A252F823F000BFA9100008C7
:1011C0006D0F0008BD0F0008BD0F000872789A422D
:1011D0007FF44FAFE3681A785F2A7FF44BAF013397
:1011E000E36046E72046FFF781FE03464DE7013303
:1011F000E360204600F08CF8324603460421204686
:10120000FFF71EF803461AE70231E160FFF76EFEB2
:10121000002302464A212046BDE8F041FFF710B8FE
:101220001B78A3F16302012A02D9723B012B8ED8ED
:10123000204600F085FA074690E745212046FFF753
:10124000E7FB0646A4E72046FFF750FE074685E782
:101250000133E36000235FE70133E360452120466B
:10126000FFF7D6FB034685E62046FFF73FFE06461E
:101270002046FFF73BFE07462046FFF737FE0346B2
:1012800000287FF449AF99E60133E360204600F07F
:101290003FF83246034604212046FEF7D1FF0646BA
:1012A00076E75A78692A7FF489AE0233E3604521F4
:1012B0002046FFF7ADFB03462EE7204600F03AFE3E
:1012C000D5E72046FFF712FE064661E7692B7FF45B
:1012D00068AE4B786C2B7FF437AE00250231E160AD
:1012E00020464521FFF794FB2A460346302120463D
:1012F000BDE8F041FEF7A4BF84D9040868D404080F
:1013000078D404086CD4040870D4040874D4040895
:101310002DE9F041C268C76A1378452B82B00446B4
:101320004ED002AD002145F8041D0126493B0F2B8C
:101330003DD8DFE803F037373C323C3C3C3C3C3C9A
:101340003C3C3C3C3C080132D4F83480E2606663AB
:101350002046FFF7CBFDE368C4F834801A78452AAD
:10136000844603F1010327D1E36000232F21624665
:101370002046BCF1000F1FD0FEF762FF286000F18D
:101380000C05C8B1E2681378452BCFD10198E7620C
:101390000132E26002B0BDE8F081204601F0C0FBFE
:1013A0008446E2E7204600F015F88446DDE7204653
:1013B00000F0C6F98446D8E7002002B0BDE8F0810D
:1013C00001320023C2602F211A4602B0BDE8F0416D
:1013D000FEF736BFC3681A78493A012A02D80133AA
:1013E000C36095E7002070472DE9F043C268137889
:1013F0004E3B83B004460C2B46D8DFE803F067452C
:101400004545450E450745454545A40000F03EFFCE
:101410000546284603B0BDE8F0835378742B40F0AE
:10142000D780D0E9053102328B42C26080F2278139
:101430000169C0481A018D180133636100236B6094
:101440008B540323C5E90203204600F01FFF2A4600
:10145000034601212046FEF7F3FE236BE2680333C7
:1014600023631378492B0546D3D1002800F0BA80B6
:10147000D4E90832934280F2B580E1695A1C41F800
:1014800023002262204614E000F000FFE3681B788E
:10149000492B0546BDD1002800F0A480D4E90832CC
:1014A000934280F29F80E1695A1C41F82300204654
:1014B0002262FFF78FFF2A46034604212046FEF7EB
:1014C000BFFE0546284603B0BDE8F0830132C26086
:1014D00001A9012200F0E6FD8046002800F082808C
:1014E00000212046FEF7F4FEE268934E157881460F
:1014F0000027002D00F0B380442D00F09680A5F168
:101500003003DBB21C2B6FD9A5F16103DBB2192BC1
:101510006ED9552D00F0A180532D00F0B280492DD9
:1015200000F0A480542D00F0E680452D00F0E98005
:101530004D2D40F09480002F00F09180531CE3600B
:1015400055781A46D5E70132C260002101F03AF819
:10155000E3681A78452A064644D15A1CE2605A7854
:10156000732A00F0B080642A00F095802046FFF7CF
:101570003BFF054608B30378452B1ED0472B1CD0F4
:101580004FF0FF372046FFF703F958B37B1C14D008
:10159000D4E90532934280F29480206919014218FF
:1015A00001334FF0000E4FF0460CC2F804E06361C7
:1015B00000F801C0C2E9025715462B4632462046C4
:1015C0000221FEF73DFE0546284603B0BDE8F08344
:1015D0000021FFF725F8E3681B78492B05467FF4C7
:1015E00018AF4FE7002514E726FA03F3D9078BD588
:1015F000204600F04BFE5FB3012103463A462046E9
:10160000FEF71EFE0746E268532D13781ED0452BC9
:101610001AD027B3D4E908318B4220DAE16941F8C6
:10162000237001332362157863E7537803F0DF03F7
:10163000542B20460ED000F029FE002FDCD1E268AA
:101640001378452B0746E4D11D4658E71D4650E761
:101650000746D8E700F074F8EFE72046EBE70025EF
:101660002846C8F8005003B0BDE8F083002FF6D03C
:101670000132E2602046FFF74BFE0421BDE7002562
:10168000E2E601212046FEF7CBFF002FB4D1E2684D
:10169000074615782DE70233E3602046FEF70EFF7C
:1016A000071E9FDB2046FFF79FFE054600283FF4FC
:1016B0006FAF0378452B3FF469AF472B3FF466AF1C
:1016C00060E7002579E70233E3602046FFF760F822
:1016D000002887D0D4E905239A4210DA2069174DF3
:1016E000110143180132626100225A6042540E22F5
:1016F000C3E9025262E72046FEF7FAFE9DE70023A7
:101700005CE7C8F80070002F3FF46CAFB9F1000F30
:1017100004D0019BC9F80830CDF804901378452B0C
:101720007FF460AF019D01322846E26003B0BDE85E
:10173000F08300BF8CD40408FF0308107CD4040895
:101740002DE9F043C2681378722B83B004465FD052
:10175000562B5DD04B2B5BD0442B51D0A3F13001E5
:101760004A2900F29E80DFE811F0110111011101F8
:1017700011011101110111011101110111019C004F
:101780009C009C009C009C009C009C001E029C00F5
:101790003B019C009C00350149019C009C009C0081
:1017A0009C009C0006021101570165019C00730119
:1017B0008101A501CC019C009C009C009C001101B2
:1017C0009C009C009C009C009C009C00E401E401A7
:1017D000E401E401E401E401E401E401E401E401E1
:1017E0009C00E401E401E401E4019C009C009C00F5
:1017F000E401E4012701E401E401E401E401E4017E
:10180000537803F0DF014F2902D0773B012B4DD8ED
:10181000002201A9204600F045FC0546002840D0E2
:10182000E3681B78462B204619D100F00FFD286095
:10183000002836D00378019A1F3B012B13D9002AC8
:101840002FD0D4E908318B422BDAE06940F823200D
:10185000591C019D2162284603B0BDE8F083FFF7C3
:101860006FFF2860E4E7836882602A6801922B603A
:10187000019AE4E70123456B4363FFF737FB656398
:101880000246002342212046FEF7DAFC054601907D
:1018900038B1E3681A7822B15A1CE2601B78452BF4
:1018A0007BD00025284603B0BDE8F083531CC360FD
:1018B0005378002BF5D0931CC3605378463B302BF4
:1018C000EFD801A151F823F0851D0008A3180008E6
:1018D000A3180008A3180008A3180008A3180008FC
:1018E000A3180008A3180008A3180008A3180008EC
:1018F000A3180008A3180008A3180008A3180008DC
:1019000075180008A3180008A3180008A3180008F9
:10191000A3180008A3180008A3180008A3180008BB
:10192000A3180008A3180008A3180008A3180008AB
:10193000A3180008611D0008A31800083D1D000839
:10194000151D0008ED1C0008C51C0008A3180008A0
:101950009D1C0008391E0008A3180008A3180008E1
:10196000A3180008A3180008ED1D0008A31800081C
:10197000871C0008A3180008A31800085F1C0008B3
:1019800075180008A3180008251C00082046FFF75A
:101990002BFD05460190002D83D0D4E908329342F7
:1019A000BFF67FAFE16941F82350019D5A1C2846DC
:1019B000226203B0BDE8F0830132E2602046FEF708
:1019C000B9FD0023024628212046FEF739FC0546D2
:1019D0000190E0E7204600F039FC05460190DAE787
:1019E0000132E2602046FFF7ABFE002302462521CC
:1019F0002046FEF725FC05460190CCE70132E26067
:101A00002046FFF79DFE0023024626212046FEF7D2
:101A100017FC05460190BEE70132E2602046FFF761
:101A20008FFE0023024624212046FEF709FC0546CE
:101A30000190B0E70132E2602046FFF781FE00230B
:101A4000024622212046FEF7FBFB05460190A2E755
:101A50000132E2602046FFF773FE00230246232195
:101A60002046FEF7EDFB0546019094E75378A3F17D
:101A70003002092A05D95F2B03D0413B192B00F214
:101A80000F8200212046FEF7CBFDE36801901A7813
:101A9000492A05467FF4DFAE0133E3602046FFF7B5
:101AA00037FC03462A4604212046FEF7C9FB0546BB
:101AB000019070E72046FEF71BFDE6680190337841
:101AC000492B05467FF467AFA36B002B40F0F581EF
:101AD00000283FF4E6AED4E908218A42BFF6E1AE21
:101AE000E16941F82200013222623178019D4939D1
:101AF0000129D7D80136E6602046FFF709FC0346E6
:101B0000D0E70132E2602046FEF714FDE368019061
:101B10001A78492A054600F0A8812046FFF710FEF2
:101B2000019B024621212046FEF78AFB05460190D3
:101B300031E7D4E90510613BB64D03EB83038142E5
:101B400005EB830380F28B815868266BD4F810C0B4
:101B50000F010CEB070506443046013201314FF00E
:101B6000000E2726C5F804E061610CF80760AB6041
:101B7000E26020636FE60132E2602046FFF7E0FD9D
:101B8000054600283FF48DAE2046FFF7D9FD0346F9
:101B900000283FF486AE2A462B212046FEF750FB54
:101BA00005460190F7E6551CE56053785F2B00F081
:101BB0005A81303B092B00F26581284600E0084637
:101BC000411CE1604378303B092BF8D9D4E9053258
:101BD0009342A1EB0507BFF664AED4F810E04FEADC
:101BE000031C0EEB0C060133002272606361002FB0
:101BF0003FF457AE72600EF80C20C6E902574378E6
:101C00000D465F2B7FF44DAE0135E5602046FFF7B2
:101C100097FD324603462A212046FEF711FB054672
:101C20000190B8E693785F2B00F07881FEF72EFCE8
:101C30000546002D3FF435AEE3681A785F2A7FF43D
:101C400030AE0133E3602046FFF77AFD2A460346B3
:101C50002D212046FEF7F4FA054601909BE6D0E9D7
:101C60000532934280F2FB800069226B190145180E
:101C7000013300266E60083263612726664B4654A6
:101C8000AB602263E7E5FFF75BFD002302464A21D4
:101C90002046FEF7D5FA054601907CE6D0E90532EC
:101CA000934280F2DC800069226B190145180133F0
:101CB00000266E60043263612726584B4654AB60A1
:101CC0002263C8E5D0E90532934280F2C8800069FA
:101CD000226B19014518013300266E6009326361D9
:101CE00027264F4B4654AB602263B4E5D0E905325A
:101CF000934280F2B4800069226B190145180133C8
:101D000000266E600A3263612726464B4654AB605C
:101D10002263A0E5D0E90532934280F2A0800069F9
:101D2000226B19014518013300266E600932636188
:101D300027263D4B4654AB6022638CE5D0E9053243
:101D40009342BFF6AEAD0169384E1A018D180133CA
:101D5000436100230E206B608B54C5E902607AE575
:101D6000D0E905329342BFF69CAD0169304E1A01AD
:101D70008D1801334361002304206B608B54C5E947
:101D8000026068E5D0E905318B4280F2AF800569D9
:101D900018012918013300272C264F600191636137
:101DA0002E549378303BDBB2092B94BF01233B4682
:101DB0008B8140F2AE802046019DFFF7C1FC019B64
:101DC000A8609B68002B3FF46CAD04F10C00FEF79B
:101DD00031FBE268137813B1531CE3601378019D63
:101DE000A3F1730253425341EB8134E5D0E905324C
:101DF000934234DA0069226B190145180133002639
:101E00006E601132636127260A4B4654AB60226331
:101E100021E500BF84650408DC670408C86704087E
:101E20008C670408B4670408A067040898D4040801
:101E300090D4040804680408D0E9053293420EDA0D
:101E40000069226B19014518013300266E600832C3
:101E500063612726364B4654AB602263FBE40023C4
:101E600001939B68FFDE0026CEE60133E360204647
:101E7000FFF74EFA2A46034604212046FEF7E0F912
:101E800001904AE60123656B63632046FFF72EF855
:101E90006563064600283FF404ADE5682B78B0E69C
:101EA0002046FFF7A1FA0546019000283FF4F9AC5F
:101EB0000378182B7FF471ADCDE4731CE3602046EA
:101EC000D4F81490D4F82080A76A256BFFF720FA85
:101ED000E2681278492A03460BD02563E660C4F80D
:101EE0001490C4F82080A762019D54E500231B7064
:101EF000FFDE019900293FF4D4ACD4E908208242E6
:101F0000BFF6CFACE06940F8221001322262019A9C
:101F1000C9E504F10C00FEF78DFA4CE7033201230A
:101F2000466BC2604363FEF7E1FF6663054680E6E9
:101F3000F0670408F8B5C3681E78864636B35A1CA5
:101F4000C2605A781E78002A4AD09A1CC260762E47
:101F5000044693F801C045D1ACF13005EBB2092B32
:101F600015D8FEF7E7FAD4E905318B42024621DAAB
:101F70002669190170180133002747606361CAB1EF
:101F8000322347607354C0E90252F8BDB446234C73
:101F900043200022831A03EBD37302EB630319017E
:101FA000671861580D78B54206D094BF5A1C184680
:101FB0008242EFD10020F8BD49786145F5D1DEE9D4
:101FC00005329342F6DADEF810101A018818013350
:101FD000002531244560CEF814308C548760F8BD5C
:101FE0009446D4E7632ED2D1BCF1760FCFD1D0E99D
:101FF0000D35B3FA83F35B098363FFF7A1FBA36B92
:1020000002462BB933212046FEF71AF9A563F8BD25
:10201000002334212046FEF713F9F7E71868040877
:1020200030B5C26883B0002301931378002B36D0FB
:10203000452B34D02E2B32D0044601AD15E04F2B6A
:1020400016D0FFF77DFB002302462E2138B3204631
:10205000FEF7F6F8286010B3E268137800F10C057B
:102060004BB1452B07D02E2B05D0522B2046E6D165
:102070005378452BE5D1019888B1C3680BB103B003
:1020800030BD826811782729F9D19268117C09291D
:10209000F5D15168226B521A22638360EFE700206A
:1020A00003B030BD2DE9F04F894683B0C168131EDF
:1020B000019304460B7815BF4FF01E084FF01B0824
:1020C0001D271A2714BF1C2619264D464FF0010A5A
:1020D0001CE0562B3FD04B2B43D04B78002B35D0F8
:1020E0008B1CE3604B78782B41D06F2B45D1236B51
:1020F000093323634E21002300222046FEF7A0F877
:10210000286018B3E1680B7800F10805722B0DD038
:10211000562B0BD04B2B09D0442B46D14A7802F0DA
:10212000DF004F2802D0773A012A3ED84A1C722B92
:10213000E260CED1236B09332363314600230022B2
:102140002046FEF77DF828600028DBD100252846D0
:1021500003B0BDE8F08F236B0933236339460023B6
:10216000CAE7236B0633236341460023C4E7236B8E
:10217000113323634C210023BEE74F2B32D1D4E926
:102180000C3B09332363C4F834A02046FEF7AEFEAF
:10219000C4F834B003460028D8D0E2681178452945
:1021A000D4D10132E2604E21A6E7019A002ACED1B5
:1021B000462BCCD14D45CAD01D241E201C2108E041
:1021C0001B2A0DD0192A00D1197003F108094D45B9
:1021D000BDD0D9F800301A781A2AF1D11C70F4E772
:1021E0001870F2E7772BB1D1236B063323632046B7
:1021F000FFF716FF03460028A8D0E26811784529AA
:10220000A4D10132E2604F2176E700BF70B5C36808
:102210001A784A2A044613D081B12046FFF790FA73
:10222000054680B12046FFF7FBFE60B103462A4613
:1022300020462921BDE87040FEF702B80D46F1E7BF
:102240000133C360E9E7002070BD00BFC3681A789E
:10225000462A18D110B55A1CC2605A78592A04BFB0
:102260000233C36001210446FFF7D0FF0146204638
:10227000FEF72EF8E3681A78452A02D10133E360AD
:1022800010BD002010BD0020704700BF2DE9F041B7
:10229000C1680B78A3F13002092A04463CD9A3F1A6
:1022A0006102192A22D9A3F14302012A69D94C2BD0
:1022B00056D0552B5FD14B786C2B00F0E580742BFA
:1022C00059D14B1CC3604B78742B58D10231C1607B
:1022D000FEF7F4F80028C0F25581D4E905329342A4
:1022E000E768C0F2F3803B78002510E06F2B04D143
:1022F0004B786E2B04BF0231C1602046FFF71AFEF7
:10230000054610B10378312B13D0E3681B78422BBC
:1023100009D02846BDE8F081FEF70CF9E3681B7888
:10232000422B0546F5D129462046BDE8F041FEF78F
:102330005BB98268236B96681068A1490733334400
:10234000236306F011FB0028DFD12046FEF7F2F8E8
:102350002A46034636212046FDF772FF0546D4E79C
:102360000131C160FEF7E6F8054620B12046FEF7D0
:102370000FFA0028C9D100252846BDE8F0810025C4
:10238000C5E7C26A32B11078E0B9236BD068034464
:1023900023630B78432B18D0442BF0D14B78303B80
:1023A000052BE8D801A050F823F000BF1D24000839
:1023B000E72300082F2400087723000829240008B9
:1023C000232400081828E5D1DFE74B78492B00F0DB
:1023D000B080313B042BCED8DFE813F0ED00510084
:1023E0004C0047002C004FF0020CD4E905308D1C46
:1023F0008342E56080F2D0802669180135180133E8
:1024000000276F606361002A00F0CF8008236F60AF
:10241000335485F808C0EA608B7878E74FF0010CF8
:10242000E3E74FF0050CE0E74FF0040CDDE74FF079
:10243000030CDAE70231E1604FF00508D4E905301A
:10244000834280F2AC8026691801351801330027D9
:102450006F606361002A00F0AB8007236F60335424
:1024600085F80880EA600B7851E70231E1604FF0AF
:102470000408E3E70231E1604FF00308DEE70231D0
:10248000E1604FF00208D9E74B1CC3604B786C2B1E
:102490007FF475AF0231C160FFF7C2FD0646002828
:1024A00070D0E2681378452B7FF469AF0132E260A7
:1024B0002046FEF703F8B0F1000E63DBD4E90532E5
:1024C0009342E0681BDB0378002520E72669226A37
:1024D000D4F824E01901751801334FF0000CC5F849
:1024E00004C0724563614FF047037354A8604DDA2E
:1024F000E36943F82250013222623B7807E72769FB
:10250000226AD4F8248019017D1801334FF0000CA1
:10251000C5F804C0424563614FF045037B54C5E9EB
:10252000026E36DAE36943F8225001322262037800
:10253000EDE64B1CE3608B78313B042B32D8DFE8AF
:1025400003F0031C17120D000331E1604FF0010886
:102550002046FFF7F5F8E26AE1686FE70331E160D2
:102560004FF00508F4E70331E1604FF00408EFE7AE
:102570000331E1604FF00308EAE70331E1604FF017
:102580000208E5E7E36800251B78C0E63B7865466E
:10259000BDE603786546BAE68B780025B7E60B788A
:1025A0000025B4E64B780025B1E68B781546AEE6FB
:1025B0000B781546ABE60231E1604FF001083DE7CC
:1025C000A8D404082DE9F047C3681A78472A0446BE
:1025D00019D0542A17D00E46FEF706FF05460028EC
:1025E0007DD0002E57D0A368DB0754D400E0AD683F
:1025F0002B78A3F11C02042AF9D9022B00F0868162
:102600002846BDE8F087216B01F1140222631A7895
:10261000542A68D0472A62D15A1CE2605A78002AAC
:102620005DD09A1CE2605A78413A312A57D8DFE8E7
:1026300012F03E0156005600560056005600560055
:1026400056005600560056005600560056005600DA
:10265000560056004A01560059015600E000560047
:1026600056005600560056005600560056005600BA
:1026700056005600560056005600560056005600AA
:10268000560056005600560056005600560056009A
:1026900056005600EB00E3681B78002BB0D0452BAA
:1026A000AED029460B78202B00F218821C2B80F02C
:1026B0001E82042B40F091808A686AB11378082B3F
:1026C00003F1FF3100F28680072B80F0868001291C
:1026D00002D8D268002AF1D101217FE0E76000250D
:1026E0002846BDE8F0875A1CE2605A78002AF6D0E6
:1026F0009A1CE2605B78433B332BF0D801A252F87E
:1027000023F000BF592A0008DF260008DF26000852
:10271000432A0008DF2600082D2A0008172A00088F
:10272000012A0008DF260008DF260008DF2600084F
:10273000DF260008DF260008DF260008DF26000865
:10274000DF260008EB290008D1290008DF26000851
:10275000B7290008A1290008DF260008DF260008A5
:10276000DF260008DF260008DF260008DF26000835
:10277000DF260008DF260008DF260008DF26000825
:10278000DF2600086D290008DF260008DF26000884
:10279000DF260008DF26000847290008DF2600089A
:1027A000DF260008DF260008DF260008DF260008F5
:1027B000DF260008DF260008DF260008DF260008E5
:1027C000DF260008DF260008DF260008DF260008D5
:1027D00021290008342B7FF47FAF00212046FFF72A
:1027E00015FD2A46034603212046BDE8F047FDF7C4
:1027F00027BD2046FEF7F8FD0023024613212046A0
:10280000BDE8F047FDF71CBD04F10C00FDF712FE1A
:1028100001287FF764AFE3681A78002A3FF45FAFBE
:102820005F1CE7601B785F2B7FF459AF0022451EC9
:1028300090464FF040093B78002B3FF450AF242BDB
:1028400040F02A817B78532B00F056815F2B00F0FB
:102850005581242B7FF443AF1946D4E90503E7687B
:10286000984207F10207BFF639AFD4F810C006014D
:102870000CEB06030130C3F80480023D60610CF8E4
:1028800006909960E760002A00F026813F212046EB
:10289000FDF7D6FC024600283FF421AF002DCADC2C
:1028A000204600233E21BDE8F047FDF7C9BC0021CA
:1028B0002046FFF787FE0023024617212046BDE889
:1028C000F047FDF7BDBC2046FEF78EFD05462046CD
:1028D000FDF7DCFD2A46034616212046BDE8F047F9
:1028E000FDF7AEBC9A78002120462AB1DA1CE260DE
:1028F0009B786E2B00F00981FFF764FE00230246EF
:1029000048212046BDE8F047FDF79ABCEA6800E0A0
:1029100092681078FDF780FD0028F9D1EA606FE633
:1029200076212046FEF70AF800283FF4D8AE0021B1
:102930002046FFF747FE0023024610212046BDE84F
:10294000F047FDF77DBC68212046FDF7F7FF002822
:102950003FF4C5AE00212046FFF734FE00230246B7
:102960000F212046BDE8F047FDF76ABC0021204654
:10297000FDF7E4FF00283FF4B2AE00212046FDF74A
:10298000DDFF00283FF4ABAE00212046FFF71AFE22
:102990000023024611212046BDE8F047FDF750BC58
:1029A0002046FEF721FD0023024615212046BDE802
:1029B000F047FDF745BC0F3121632046FEF7C0FE0E
:1029C0000023024609212046BDE8F047FDF738BC48
:1029D0000A3121632046FEF7B3FE002302460A2196
:1029E0002046BDE8F047FDF72BBC2046FEF7A8FEC9
:1029F000002302460D212046BDE8F047FDF720BC2C
:102A00002046FEF79DFE0023024612212046BDE827
:102A1000F047FDF715BC2046FEF792FE0023024664
:102A20000C212046BDE8F047FDF70ABC2046FEF722
:102A3000DBFC0023024614212046BDE8F047FDF7E9
:102A4000FFBB2046FEF77CFE002302460E212046F7
:102A5000BDE8F047FDF7F4BB2046FEF771FE0546E2
:102A600004F10C00FDF7E6FC0028FFF638AEE36841
:102A70001A785F2A7FF433AE0133E3602046FEF715
:102A80005FFE236B591D216302462B4620460B2116
:102A9000BDE8F047FDF7D4BB3E46002104E016F840
:102AA000013F23B1242B02D00131A942F7DBD4E945
:102AB0000530834224DAD4E903C618010133636187
:102AC00033186D1AC3F8048006F800809F600CEB81
:102AD0000107D960E760D6E61A46DFE64C2BA3F182
:102AE0004E0204D0FFF479AE012A3FF676AE896833
:102AF00000297FF4D7AD71E62F21AEE62E21ACE69A
:102B0000E3680B44E36000257AE5FFF75BFD0023F3
:102B1000024649212046BDE8F047FDF791BB00BFC2
:102B2000F8B5C26813784C2B44D1531CC36051785C
:102B30005F29044640D05A290CD10133E3600021BB
:102B40002046FFF73FFDE3681A78452A32D101336A
:102B5000E360F8BDFEF7F4FD60B30378272B32D0B5
:102B6000E66833786E2B37D03C21452B40D00BB331
:102B7000334600E0F5B10133E3601D78452DF9D10E
:102B80009D1BD4E905239A420BDAD4F810E04FEAF2
:102B9000021C0EEB0C03013200275F60626106B17C
:102BA00005BB002302462046FDF74AFBE3681A787E
:102BB000452ACCD00020F8BD931CC36092785A2AD5
:102BC000BBD00020C1E783681A7C002AC8D05A68AD
:102BD000236B9B1A2363C3E7721CE26073783D2169
:102BE0001646C2E75F600EF80C70C3E90265D9E7CC
:102BF0000025C6E712B15368012B03DD0123C0F89D
:102C0000183170472DE9F04F15465A1C6A6099B08B
:102C1000D0F8187104950E4604ABD0F82811059130
:102C20000446C0F82831002F40F0D78028784F287C
:102C300001F2EF82DFE810F0870AB80AB80A4F0AFB
:102C4000C607940767075E0737070F07E706BF0643
:102C500097066F0647061F0647091F09F708CF08A2
:102C6000A7087F0857082F08D609BF09BF09BF0961
:102C700099099909990999099909990999096F096E
:102C80006F09990999091D0A140A06069205720529
:102C90001B057205D304D30488045C043404ED0AD4
:102CA0000C040404B0039C0397038D03880388037A
:102CB000330333030B03FE02DC02AA0282025A0230
:102CC0003202F801ED0AD001A801530105017B0190
:102CD0009909D80099099909AA6893681B685978D5
:102CE000632909D11B78A3F16301012942F21983F9
:102CF000723B012B42F2158305F10C03314620464D
:102D000003F0D2FC8046002842F00084AB681A78B9
:102D1000312A02F092859B68D749186805F024FE95
:102D2000EB689A6818B91378032B02F0D485314602
:102D3000204603F067FCAF68D049BB68D3F8008039
:102D4000404605F011FE8146002842F0D083D4F8B9
:102D50000071FF2F10D184F8FF003946D4F80831F4
:102D6000D4F80C2120469847D4F82431C4F80091B7
:102D700001334F46C4F824317A1C5B23C4F8002188
:102D8000E35584F80431EB683146DA682046FFF7F2
:102D900031FFD4F80071FF2F11D100263946D4F845
:102DA000083184F8FF60D4F80C2120469847D4F805
:102DB0002431C4F8006101333746C4F824315D235F
:102DC0007A1CC4F80021E35584F80431AB681A7802
:102DD000312A02F0AD8305996A68C4F82811013AD6
:102DE0006A6019B0BDE8F08FA54FAA683146204649
:102DF000FFF700FF07F10808D4F800314FF0000991
:102E000016E0D4F80831D4F80C2184F8FF909847E4
:102E1000D4F824310133C4F8243100220123B84509
:102E2000C4F8003104F802A084F804A101F0F9828A
:102E3000FF2B1946204617F801AFE2D01A4601339E
:102E4000EDE7A9682046FDF7EFFC002802F0E181DC
:102E5000002302782F2A41F0DF858268002A01F0E2
:102E6000DB85C06801330028F3D11946AB680193B4
:102E70004A1E02924FF0000A89460395C4F8207159
:102E8000019A31462046FFF7B5FE029B9F4281F230
:102E9000C6817C4DD4F8003105F1020816E0D4F863
:102EA0000831D4F80C2184F8FFA09847D4F82431D5
:102EB0000133C4F8243100220123A845C4F80031AD
:102EC00004F802B084F804B101F0A981FF2B19467F
:102ED000204615F801BBE2D01A460133EDE76A4FF0
:102EE000D4F8003107F11A084FF0000916E0D4F8C1
:102EF0000831D4F80C2184F8FF909847D4F8243195
:102F00000133C4F8243100220123B845C4F800314C
:102F100004F802A084F804A101F0F182FF2B194605
:102F2000204617F801AFE2D01A460133EDE7574FBC
:102F3000AA6831462046FFF75DFE07F10508D4F880
:102F400000314FF0000916E0D4F80831D4F80C2114
:102F500084F8FF909847D4F824310133C4F8243121
:102F600000220123B845C4F8003104F802A084F817
:102F700004A101F07C82FF2B1946204617F801AB13
:102F8000E2D01A460133EDE7414FD4F8003107F1A2
:102F900016084FF0000916E0D4F80831D4F80C21D7
:102FA00084F8FF909847D4F824310133C4F82431D1
:102FB00000220123B845C4F8003104F802A084F8C7
:102FC00004A101F0F481FF2B1946204617F801AF48
:102FD000E2D01A460133EDE72E4ED4F8003106F167
:102FE0000E074FF0000816E0D4F80831D4F80C2191
:102FF00084F8FF809847D4F824310133C4F8243191
:1030000000220123B742C4F8003104F8029084F88A
:10301000049101F0D581FF2B1946204616F8019F37
:10302000E2D01A460133EDE71B4FD4F8003107F127
:1030300008084FF0000916E0D4F80831D4F80C2144
:1030400084F8FF909847D4F824310133C4F8243130
:1030500000220123B845C4F8003104F802A084F826
:1030600004A101F01481FF2B1946204617F801AF87
:10307000E2D01A460133EDE76CD404086CD604089C
:1030800027D7040840D604080BD60408ACD404089B
:103090000FD6040817D7040807D70408B94FD4F887
:1030A000003107F11C084FF0000916E0D4F8083190
:1030B000D4F80C2184F8FF909847D4F824310133D8
:1030C000C4F8243100220123B845C4F8003104F8C3
:1030D00002A084F804A101F00F81FF2B19462046BD
:1030E00017F801AFE2D01A460133EDE7A64FD4F846
:1030F000003107F11D084FF0000916E0D4F808313F
:10310000D4F80C2184F8FF909847D4F82431013387
:10311000C4F82431002201234745C4F8003104F8E3
:1031200002A084F804A101F08380FF2B19462046F9
:1031300017F801AFE2D01A460133EDE7934FD4F808
:10314000003107F10A084FF0000916E0D4F8083101
:10315000D4F80C2184F8FF909847D4F82431013337
:10316000C4F8243100220123B845C4F8003104F822
:1031700002A084F804A101F06480FF2B19462046C8
:1031800017F801ABE2D01A460133EDE708A8AA68A8
:103190007F493EF0E9FB08A805F052FD002801F048
:1031A000B78108AED4F8003137184FF0000816E0A8
:1031B000D4F80831D4F80C2184F8FF809847D4F86B
:1031C00024310133C4F8243100220123BE42C4F863
:1031D000003104F8029084F8049101F09981FF2BEA
:1031E0001946204616F8019BE2D01A460133EDE756
:1031F000D4F8007195F80880FF2F11D100263946C8
:10320000D4F8083184F8FF60D4F80C2120469847A0
:10321000D4F82431C4F8006101333746C4F82431AE
:103220007B1CC4F8003104F8078084F804816A68C4
:103230000599D2E5AA6831462046FFF7DBFC314606
:10324000EA682046FFF7D6FC05996A68C5E5514F44
:10325000D4F8003107F10E084FF0000916E0D4F859
:103260000831D4F80C2184F8FF909847D4F8243121
:103270000133C4F8243100220123B845C4F80031D9
:1032800004F802A084F804A101F04681FF2B19463E
:10329000204617F801AFE2D01A460133EDE7AB68DC
:1032A0001A78272A01F072854FF00008D4F80071CF
:1032B000FF2F12D14FF000093946D4F8083184F8B5
:1032C000FF90D4F80C2120469847D4F82431C4F854
:1032D000009101334F46C4F8243128237A1CC4F8E6
:1032E0000021E35584F80431AA6831462046FFF7EF
:1032F00081FCD4F80031FF2B41F0B885002219463B
:1033000084F8FF20D4F80831D4F80C2120469847DF
:103310002923237084F804312A78D4F82431012138
:1033200001333D2AC4F82431C4F8001101F0BB85F3
:10333000B8F1080F01F056853146EA682046FFF7DC
:1033400059FC05996A6848E50123C4F818316A6890
:1033500043E5EB681A783A2A01F005840123C4F8A2
:1033600018316A6839E50123C4F818316A6834E510
:10337000EB681B78382B3FF4AFAC0123C4F818314D
:103380006A682AE5E7D60408C7D60408A8D6040860
:1033900064D4040897D60408D5E9029899F8003057
:1033A000312B01F03A84332B42F09281D4F8007132
:1033B000FF2F12D14FF0000A3946D4F8083184F8B3
:1033C000FFA0D4F80C2120469847D4F82431C4F843
:1033D00000A101335746C4F824317A1C2823C4F8CD
:1033E0000021E35584F80431D9F8082031462046FD
:1033F000FFF700FCD4F80071FF2F12D14FF0000945
:103400003946D4F8083184F8FF90D4F80C212046CE
:103410009847D4F82431C4F8009101334F46C4F8DA
:10342000243129237A1CC4F80021E35584F804319F
:1034300042463146204603F0E5F805996A68CCE437
:103440003146AA68204603F09DF805996A68C4E4ED
:10345000D24FD4F8003107F109084FF0000916E007
:10346000D4F80831D4F80C2184F8FF909847D4F8A8
:1034700024310133C4F8243100220123B845C4F8B3
:10348000003104F802A084F804A101F05780FF2B5A
:103490001946204617F801AFE2D01A460133EDE78E
:1034A000BE4FD4F8003107F109084FF0000916E0CB
:1034B000D4F80831D4F80C2184F8FF909847D4F858
:1034C00024310133C4F8243100220123B845C4F863
:1034D000003104F802A084F804A101F02680FF2B3B
:1034E0001946204617F801AFE2D01A460133EDE73E
:1034F000D5F808A0AA4EDAF80870D4F8003106F121
:1035000008084FF0000916E0D4F80831D4F80C216F
:1035100084F8FF909847D4F824310133C4F824315B
:10352000002201234645C4F8003104F802B084F8B3
:1035300004B101F02180FF2B1946204616F801BF87
:10354000E2D01A460133EDE7D5E902281AB1314637
:103550002046FFF74FFBD4F80071FF2F12D14FF038
:1035600000093946D4F8083184F8FF90D4F80C21CA
:1035700020469847D4F82431C4F8009101334F46CF
:10358000C4F82431781C7B23C4F800014246E3557B
:103590003146204684F80431FFF72CFBD4F8007143
:1035A000FF2F11D100263946D4F8083184F8FF6086
:1035B000D4F80C2120469847D4F82431C4F800618F
:1035C00001333746C4F824317A1C7D23C4F8002126
:1035D000E35584F804316A680599FFF7FEBBAA68D1
:1035E0001AB131462046FFF705FBEB68002B01F0CE
:1035F0003D85D4F80071FD2F12D94FF0000804F872
:1036000007803946D4F80831D4F80C212046984771
:10361000D4F82431C4F8008101334746C4F824317A
:10362000DFF888814FF0000A08F1020B16E0D4F8A9
:10363000083184F8FFA0D4F80C219847D4F824313D
:103640000133C4F8243101270023C345C4F80071B5
:1036500004F8039084F8049101F0CF80FF2F3946DD
:10366000204618F8019BE2D03B460137EDE7B5F95B
:103670000E30002B41F0A084AA684A4B9168994211
:1036800020D031462046FFF7B5FAD4F80071FF2F5D
:1036900011D100263946D4F8083184F8FF60D4F8F7
:1036A0000C2120469847D4F82431C4F80061013336
:1036B0003746C4F8243120237A1CC4F80021E3558E
:1036C00084F80431B5F90C20D4F80031002A01F057
:1036D000A680354E4FF0000806F1060915E0D4F833
:1036E0000831D4F80C2184F8FF809847D4F82431AD
:1036F0000133C4F8243100220123B145C4F800315C
:10370000A75484F8047101F08381FF2B19462046E9
:1037100016F8017BE3D01A460133EEE718ABD4F874
:10372000142143F8402D0020C4F814310A90D4F835
:103730001031EA680B93314620460995FFF75AFA93
:103740000A9B23B931462A46204602F0E9F8089B35
:10375000C4F8143105996A68FFF73FBB0DF16009A1
:10376000D4F814C149F840CDD4F81031CDF804C0D4
:1037700000226746C4F814910995CDE90A23002F69
:1037800001F02F857B681B78193B022B01F22985FC
:1037900023464FF001084C469C460EE04FD60408E5
:1037A00043D604082466040830D6040840D604082A
:1037B0007B681B78193B022B1DD8BB684FEA081E9B
:1037C00018AA02EB0E0B9BB9B8F1030F01F2178593
:1037D00097E80F00ABF1400A8AE80F004BF8404C25
:1037E000012309EB0E04CCF8144108F10108BB6079
:1037F0003F68002FDCD1EA68314660466446FFF737
:10380000F9F90A9B019AC4F81421BBB9B8F1010F68
:103810000CD009EB08180CAF58F80C2C3146A8F165
:103820001008204602F07CF84745F5D13146D4F81F
:10383000143105F10802204602F0CAFD05996A68B4
:10384000FFF7CBBAB20626F06008D4F8143101F1C4
:103850005A82AA681AB116F0400601F0C3854146A3
:1038600005F10C02D4F81431204602F087FB0599CB
:103870006A68FFF7B2BACB4FD4F8003107F11508E8
:103880004FF0000916E0D4F80831D4F80C2184F880
:10389000FF909847D4F824310133C4F82431002232
:1038A0000123B845C4F8003104F802A084F804A14B
:1038B00000F08987FF2B1946204617F801AFE2D0A8
:1038C0001A460133EDE7B84FD4F8003107F110087C
:1038D0004FF0000916E0D4F80831D4F80C2184F830
:1038E000FF909847D4F824310133C4F824310022E2
:1038F0000123B845C4F8003104F802A084F804A1FB
:1039000000F06A87FF2B1946204617F801AFE2D076
:103910001A460133EDE7A54FD4F8003107F112083C
:103920004FF0000916E0D4F80831D4F80C2184F8DF
:10393000FF909847D4F824310133C4F82431002291
:103940000123B845C4F8003104F802A084F804A1AA
:1039500000F02787FF2B1946204617F801AFE2D069
:103960001A460133EDE7924FD4F8003107F10D0804
:103970004FF0000916E0D4F80831D4F80C2184F88F
:10398000FF909847D4F824310133C4F82431002241
:103990000123B845C4F8003104F802A084F804A15A
:1039A00000F00887FF2B1946204617F801ABE2D03C
:1039B0001A460133EDE77F4FD4F8003107F11808BC
:1039C0004FF0000916E0D4F80831D4F80C2184F83F
:1039D000FF909847D4F824310133C4F824310022F1
:1039E0000123B845C4F8003104F802A084F804A10A
:1039F00000F09986FF2B1946204617F801AFE2D058
:103A00001A460133EDE76C4FD4F8003107F108088E
:103A10004FF0000916E0D4F80831D4F80C2184F8EE
:103A2000FF909847D4F824310133C4F824310022A0
:103A30000123B845C4F8003104F802A084F804A1B9
:103A400000F0A686FF2B1946204617F801AFE2D0FA
:103A50001A460133EDE7594FD4F8003107F10B084E
:103A60004FF0000916E0D4F80831D4F80C2184F89E
:103A7000FF909847D4F824310133C4F82431002250
:103A80000123B845C4F8003104F802A084F804A169
:103A900000F0CC85FF2B1946204617F801ABE2D089
:103AA0001A460133EDE7D4F80071FF2F12D14FF021
:103AB00000083946D4F8083184F8FF80D4F80C2186
:103AC00020469847D4F82431C4F800810133474692
:103AD000C4F824317E237A1CC4F80021E35584F80D
:103AE00004313146EA682046FFF784F805996A6890
:103AF000FFF773B93146EA682046FFF77BF805996E
:103B00006A68FFF76AB9D5F80880D4F80031B8F1CF
:103B1000000F00F08B872A4E4FF0000906F1060ACD
:103B200015E0D4F80831D4F80C2184F8FF909847B8
:103B3000D4F824310133C4F8243100220123B245E2
:103B4000C4F80031A75484F8047100F08F86FF2B6D
:103B50001946204616F8017BE3D01A460133EEE7FA
:103B6000D4F81C31002B40F0D18605F10801204625
:103B7000FCF74AFE0246002801F0718203782F2BE1
:103B800001F06282D4F810713B68C4F810313146FC
:103B90002046FFF72FF8C4F8107105996A68FFF7FF
:103BA0001CB900BF53D504083FD504082BD5040821
:103BB0001CD50408F7D40408EBD40408E0D40408A6
:103BC000C0D6040800237107D4F81491D4F84481B6
:103BD000C4F81431C4F84451AF6805D53B781BB91B
:103BE000FA68062A01F033843A4631462046FFF748
:103BF00001F894F804313C2B01F00682D4F80071EE
:103C0000FF2F12D14FF0000A3946D4F8083184F85A
:103C1000FFA0D4F80C2120469847D4F82431C4F8EA
:103C200000A101335746C4F824313C237A1CC4F860
:103C30000021E35584F804313146EA682046FEF756
:103C4000D9FF94F804313E2B01F06F80D4F8007155
:103C5000FF2F11D100263946D4F8083184F8FF60CF
:103C6000D4F80C2120469847D4F82431C4F80061D8
:103C700001333746C4F824313E237A1CC4F80021AE
:103C8000E35584F80431C4F81491C4F844810599CB
:103C90006A68FFF7A2B8DA4FD4F8003107F11108CB
:103CA0004FF0000916E0D4F80831D4F80C2184F85C
:103CB000FF909847D4F824310133C4F8243100220E
:103CC0000123B845C4F8003104F802A084F804A127
:103CD00000F0EB84FF2B1946204617F801AFE2D025
:103CE0001A460133EDE7C74FD4F8003107F1150844
:103CF0004FF0000916E0D4F80831D4F80C2184F80C
:103D0000FF909847D4F824310133C4F824310022BD
:103D10000123B845C4F8003104F802A084F804A1D6
:103D200000F0CC84FF2B1946204617F801AFE2D0F3
:103D30001A460133EDE7B44FD4F8003107F1190802
:103D40004FF0000916E0D4F80831D4F80C2184F8BB
:103D5000FF909847D4F824310133C4F8243100226D
:103D60000123B845C4F8003104F802A084F804A186
:103D700000F08984FF2B1946204617F801AFE2D0E6
:103D80001A460133EDE7A14FD4F8003107F11608C8
:103D90004FF0000916E0D4F80831D4F80C2184F86B
:103DA000FF909847D4F824310133C4F8243100221D
:103DB0000123B845C4F8003104F802A084F804A136
:103DC00000F06A84FF2B1946204617F801AFE2D0B5
:103DD0001A460133EDE78E4FD4F8003107F113088E
:103DE0004FF0000916E0D4F80831D4F80C2184F81B
:103DF000FF909847D4F824310133C4F824310022CD
:103E00000123B845C4F8003104F802A084F804A1E5
:103E100000F02784FF2B1946204617F801AFE2D0A7
:103E20001A460133EDE77B4FD4F8003107F10F0854
:103E30004FF0000916E0D4F80831D4F80C2184F8CA
:103E4000FF909847D4F824310133C4F8243100227C
:103E50000123B845C4F8003104F802A084F804A195
:103E600000F00884FF2B1946204617F801AFE2D076
:103E70001A460133EDE7684FD4F8003107F11A080C
:103E80004FF0000916E0D4F80831D4F80C2184F87A
:103E9000FF909847D4F824310133C4F8243100222C
:103EA0000123B845C4F8003104F802A084F804A145
:103EB00000F0C583FF2B1946204617F801AFE2D06A
:103EC0001A460133EDE7554FD4F8003107F11108D8
:103ED0004FF0000916E0D4F80831D4F80C2184F82A
:103EE000FF909847D4F824310133C4F824310022DC
:103EF0000123B845C4F8003104F802A084F804A1F5
:103F000000F0A683FF2B1946204617F801AFE2D038
:103F10001A460133EDE7D4F81C71D5F80890002F4C
:103F200040F0AE8599F80020052A01F0808199F8CB
:103F30000030232B00F0A0852A789A4200F09C855F
:103F4000242B01F06281D4F814C1A94618ABD4F82F
:103F5000102143F840CD0021CDE90A12CDF824907C
:103F6000C4F81431D9F8082010E0002218ABD4F8B6
:103F7000141143F8401DD4F8101109950020C4F81D
:103F80001431CDE90A01A946002AEBD0314620467A
:103F9000FEF730FE0A9B23B94A463146204601F01F
:103FA000BFFC089BC4F814310FB1C4F81081059907
:103FB0006A68FEF712BFD4F814C16346BCF1000F63
:103FC000C3D0996851B95A681278A2F1190EBEF19E
:103FD000020F01F2FC80904201F0F0801B68002B80
:103FE000EFD1B2E7D5E90267002F3EF4F6AE3744D1
:103FF000D4F80031013F013E4FF0000827E000BF38
:10400000F7D50408DFD50408C3D50408ABD50408E8
:1040100097D5040887D504086BD5040857D504083C
:10402000D4F80831D4F80C2184F8FF809847D4F8EC
:1040300024310133C4F8243100220123B742C4F8EB
:10404000003104F8029084F8049100F0CE83FF2B35
:104050001946204616F8019FE2D01A460133EDE7D3
:104060003146AA682046FEF7C5FD05996A68FEF745
:10407000B4BE16F00406A86840F00585D0E90073C8
:10408000002B3EF4AAAE07EB030808F1FF38D4F882
:104090000031013FB14615E0D4F80831D4F80C21C5
:1040A00084F8FF909847D4F824310133C4F82431C0
:1040B00000220123B845C4F80031A65484F80461F5
:1040C00000F04585FF2B1946204617F8016FE3D015
:1040D0001A460133EEE7D5F80880D4F8143102937C
:1040E0000022C4F81421B8F1000F25D0D4F8103103
:1040F00001930DF12009234617464446924649464E
:10410000AB4698462578019B0A602846C1E9014ADA
:10411000CB6001370A46FCF77FF9002800F0C8871A
:10412000A468002C01F05780042F01F11001E9D19F
:1041300044465D46C8F814210123C4F81831059996
:104140006A68FEF74ABE16F00406AF6840F00584C0
:10415000EB68002B3EF441AE07EB030808F1FF3893
:10416000D4F80031013FB14615E0D4F80831D4F855
:104170000C2184F8FF909847D4F824310133C4F817
:10418000243100220123B845C4F80031A65484F834
:10419000046100F0E084FF2B1946204617F8016FF8
:1041A000E3D01A460133EEE7AA6831462046FEF70F
:1041B00021FD16F0040900F08186D4F80071FF2F6C
:1041C00012D14FF000083946D4F8083184F8FF8046
:1041D000D4F80C2120469847D4F82431C4F8008143
:1041E00001334746C4F824312E237A1CC4F8002139
:1041F000E35584F80431EF683B78462B00F03A87AA
:104200003A4631462046FEF7F5FC05996A68FEF706
:10421000E4BD0123C4F818316A68FEF7DEBD01373A
:104220004F457EF42BAE039D05996A68FEF7D5BD18
:104230003146AA682046FEF7DDFC05996A68FEF75C
:10424000CCBD3146AA682046FEF7D4FCD4F80071F4
:10425000FF2F11D100263946D4F8083184F8FF60C9
:10426000D4F80C2120469847D4F82431C4F80061D2
:1042700001333746C4F824317A1C2923C4F80021BD
:10428000E35584F804316A680599FEF7A6BDD4F8B1
:104290001C31AA68D34F01333146C4F81C31204683
:1042A000FEF7A8FCD4F81C21D4F80031013AC4F878
:1042B0001C21BE1C4FF0000815E0D4F80831D4F8DA
:1042C0000C2184F8FF809847D4F824310133C4F8D6
:1042D000243100220123B742C4F8003104F80290CF
:1042E00084F8049111D0FF2B1946204617F8019B42
:1042F000E3D01A460133EEE73146AA682046FEF7BE
:1043000079FC05996A68FEF768BDEA68B64901322A
:1043100008A83DF029FB08A804F092FC28B308AED9
:10432000D4F8003137184FF0000815E0D4F8083100
:10433000D4F80C2184F8FF809847D4F82431013355
:10434000C4F8243100220123BE42C4F8003104F82D
:10435000029084F804910AD0FF2B1946204616F8E3
:10436000019BE3D01A460133EEE7D4F80031FF2B6E
:1043700010D10026194684F8FF60D4F80831D4F82B
:104380000C2120469847D4F82431C4F80061013349
:10439000C4F82431D4F800210599501C7D23C4F8B9
:1043A0000001A35484F804316A68FEF716BD314653
:1043B000AA682046FEF71EFC05996A68FEF70DBD47
:1043C000AA688949013208A83DF0CEFA08A804F08D
:1043D00037FC002871D008AED4F8003137184FF000
:1043E000000815E0D4F80831D4F80C2184F8FF80D7
:1043F0009847D4F824310133C4F824310022012332
:10440000B742C4F8003104F8029084F8049156D001
:10441000FF2B1946204616F8019BE3D01A460133BC
:10442000EEE73146EA682046FEF7E4FBD4F8007177
:10443000FF2F11D100263946D4F8083184F8FF60E7
:10444000D4F80C2120469847D4F82431C4F80061F0
:1044500001333746C4F824317A1C5D23C4F80021A7
:10446000E35584F804316A680599FEF7B6BC314615
:10447000EA682046FEF7BEFBD4F80071FF2F11D189
:1044800000263946D4F8083184F8FF60D4F80C21AE
:1044900020469847D4F82431C4F8006101333746E8
:1044A000C4F824317A1C5D23C4F80021E35584F854
:1044B00004316A680599FEF790BCD4F80031FF2BEF
:1044C00010D10026194684F8FF60D4F80831D4F8DA
:1044D0000C2120469847D4F82431C4F800610133F8
:1044E000C4F82431D4F800210599501C7D23C4F868
:1044F0000001A35484F804316A68FEF76EBC3146AB
:10450000AA682046FEF776FB05996A68FEF765BC47
:1045100005996A68FEF761BC3146AA682046FEF735
:1045200069FB05996A68FEF758BC3146EA6820467F
:10453000FEF760FB05996A68FEF74FBCD4F844218A
:104540003AB118ABD4F8101143F8401D0992C4F8E1
:104550001031AA681378042B00F0D6843146204627
:10456000FEF748FBD4F8443113B1089BC4F810316E
:1045700005996A68FEF731BCDAF804603278613A6E
:10458000192A1DD8FF2B10D10026194684F8FF6088
:10459000D4F80831D4F80C2120469847D4F82431B7
:1045A000C4F800610133C4F82431D4F80021202379
:1045B000511CC4F80011A35484F80431DAF80460E3
:1045C000F31913F8013C202B08BF07F1FF37002F28
:1045D00000F0FB86013ED4F8003137444FF000086C
:1045E0001BE000BF14D7040864D40408D4F80831D1
:1045F000D4F80C2184F8FF809847D4F82431013393
:10460000C4F8243100220123BE42C4F8003104F86A
:10461000029084F8049100F0EC80FF2B19462046AC
:1046200016F8019FE2D01A460133EDE73146AA6839
:104630002046FEF7DFFA05996A68FEF7CEBB3146E1
:10464000AA682046FEF7D6FA05996A68FEF7C5BB48
:104650003146AA682046FEF7CDFA05996A68FEF74A
:10466000BCBB3146AA682046FEF7C4FA05996A68C1
:10467000FEF7B3BB3146AA682046FEF7BBFA0599A0
:104680006A68FEF7AABB3146AA682046FEF7B2FA6E
:1046900005996A68FEF7A1BB3146AA682046FEF775
:1046A000A9FA05996A68FEF798BB3146AA682046C0
:1046B000FEF7A0FA05996A68FEF78FBBCF4FEA684C
:1046C00031462046FEF796FA07F10508D4F8003186
:1046D0004FF0000915E0D4F80831D4F80C2184F823
:1046E000FF909847D4F824310133C4F824310022D4
:1046F00001234745C4F8003104F802A084F804A15E
:1047000008D0FF2B1946204617F801ABE3D01A4614
:104710000133EEE73146AA682046FEF76BFA0599A9
:104720006A68FEF75ABBB64FAA6831462046FEF7C4
:1047300061FA07F10408D4F800314FF0000915E0E0
:10474000D4F80831D4F80C2184F8FF909847D4F8B5
:1047500024310133C4F8243100220123B845C4F8C0
:10476000003104F802A084F804A108D0FF2B1946F8
:10477000204617F801ABE3D01A460133EEE7314685
:10478000EA682046FEF736FA05996A68FEF725BB07
:104790003146AA682046FEF72DFA05996A68FEF7A9
:1047A0001CBB3146AA682046FEF724FA05996A68C0
:1047B000FEF713BB3146AA682046FEF71BFA05999F
:1047C0006A68FEF70ABB3146AA682046FEF712FA6D
:1047D00005996A68FEF701BB3146AA682046FEF7D4
:1047E00009FA05996A68FEF7F8BA05996A68FEF74A
:1047F000F4BA05996A68FEF7F0BA3146EA6801939F
:104800002046D4F82461FEF7F5F9D4F82421019B61
:10481000964200F0418405996A68FEF7DEBA794E47
:10482000904606F1060914E0D4F80831D4F80C21BA
:1048300084F8FF809847D4F824310133C4F8243138
:1048400000220123B145C4F80031A75484F8047153
:1048500008D0FF2B1946204616F8017BE4D01A46F3
:104860000133EFE705996A68FEF7B7BA424608A830
:1048700065493DF079F808A804F0E2F928B308AEDC
:10488000D4F8003106EB00094FF0000814E0D4F82A
:104890000831D4F80C2184F8FF809847D4F82431EB
:1048A0000133C4F8243100220123B145C4F800319A
:1048B000A75484F8047108D0FF2B1946204616F837
:1048C000017BE4D01A460133EFE7D4F80071FF2FE3
:1048D00011D100263946D4F8083184F8FF60D4F8A5
:1048E0000C2120469847D4F82431C4F800610133E4
:1048F0003746C4F824317A1C7D23C4F80021E355DF
:1049000084F804316A680599FEF767BA3F4ED4F817
:10491000003106F105094FF0000815E0D4F8083120
:10492000D4F80C2184F8FF809847D4F8243101335F
:10493000C4F8243100220123B145C4F80031A75442
:1049400084F8047100F0CF80FF2B1946204616F83A
:10495000017BE3D01A460133EEE7EE683E44BE42E7
:104960007EF63BAA4FF0000818E0D4F8083184F82E
:10497000FF80D4F80C2120469847D4F82431013325
:10498000C4F8243100210123C4F8003104F8019057
:1049900084F804910137BE4240F2E180F31B032BFF
:1049A00097F8009002DDB9F15F0F05D0D4F800113F
:1049B000FF29DAD04B1CE7E77B785F2BF6D1BB7879
:1049C000552BF3D1F91C002002E0134603EB001035
:1049D0008E428A46EAD911F8013BA3F130025FFA10
:1049E00082FEBEF1090FA3F1410CEED9BCF1050F17
:1049F000A3F1610200F2C785373BE7E7D8D5040889
:104A000014D5040838D6040864D40408D8D404089B
:104A100005996A68FEF7E1B9AA6801921946002B68
:104A20007EF426AA05996A68FEF7D7B9CE4E06F13C
:104A3000040914E0D4F80831D4F80C2184F8FF807C
:104A40009847D4F824310133C4F8243100220123DB
:104A5000B145C4F80031A75484F8047108D0FF2B85
:104A60001946204616F8017BE4D01A460133EFE7D9
:104A700005996A68FEF7B1B9D4F814C1FFF766BAB0
:104A80000027FFF754BAD0E90267002F3EF4A5A92A
:104A90003744D4F80031013F013E4FF0000915E0E2
:104AA000D4F80831D4F80C2184F8FF909847D4F852
:104AB00024310133C4F8243100220123B742C4F861
:104AC000003104F8028084F8048108D0FF2B1946D5
:104AD000204616F8018FE3D01A460133EEE7059918
:104AE0006A68FEF77AB9AA68A049013208A83CF0C2
:104AF0003BFF08A804F0A4F828B308AED4F80031AE
:104B000006EB00094FF0000814E0D4F80831D4F89F
:104B10000C2184F8FF809847D4F824310133C4F87D
:104B2000243100220123B145C4F80031A75484F890
:104B3000047108D0FF2B1946204616F8017BE4D0FB
:104B40001A460133EFE705996A68FEF746B90599F9
:104B50006A68FEF742B905996A68FEF73EB9059999
:104B60006A68FEF73AB9DB681B783B2B7EF4F6AB3C
:104B700005F10C03AA683146204601F095FD8046F8
:104B8000002840F0A086D5E90272B968D3680868A9
:104B90007749D2F808B0D3E902A903F0E5FE00286E
:104BA00000F07486042273492046FBF7FFFBDBF814
:104BB000083003B35A463146204601F023FDD4F8AD
:104BC0000071FF2F10D13946D4F8083184F8FF80E6
:104BD000D4F80C2120469847D4F82431C4F8008139
:104BE00001334746C4F8243120237A1CC4F800213D
:104BF000E35584F80431524631462046FDF7FAFF6A
:104C0000B9F1000F00F063864A463146204601F0B4
:104C1000F9FC05996A68FEF7E0B8D9F808305649FA
:104C2000D3F800A0504603F09FFE98F8003010B96A
:104C3000032B00F02B85382B00F00C854F49504694
:104C400003F092FE0746002800F013854C495046B9
:104C500003F08AFE002800F03383314620464A469E
:104C600001F090FC4749504603F07EFE002800F01A
:104C7000B0835046444903F077FE814600287EF415
:104C8000D7ABD4F80071FF2F10D184F8FF0039465C
:104C9000D4F80831D4F80C2120469847D4F82431B0
:104CA000C4F8009101334F46C4F82431781C2823FE
:104CB000C4F800014246E3553146204684F80431E9
:104CC000FDF798FFD4F80071FF2F11D10026394667
:104CD000D4F8083184F8FF60D4F80C2120469847B6
:104CE000D4F82431C4F8006101333746C4F82431C4
:104CF0007A1C2923C4F80021E35584F804316A683A
:104D00000599FEF76AB805F10C024146204601F00C
:104D100035F9AA68002A00F0FD8341462046FDF7D8
:104D200069FF05996A68FEF758B8D4F80071FF2F3B
:104D300011D100263946D4F8083184F8FF60D4F840
:104D40000C2120469847D4F82431C4F8006101337F
:104D50003746C4F8243120237A1CC4F80021E355D7
:104D600084F80431FEF772BFB8D6040864D404088E
:104D700078D4040874D604085CD6040860D6040805
:104D800068D4040864D6040884D904089B6893F89E
:104D90001080B8F1000F3EF489AAB8F1060F40F276
:104DA0003F84B8F1070F7EF481AAEB681A78002AD5
:104DB0007EF47CAADA68012A7EF478AA3C287EF484
:104DC00075AA9B681B78302B00F0B684312B7EF4DB
:104DD0006DAA0422C3492046FBF7E8FA05996A68E0
:104DE000FDF7FBBFD4F80071FF2F12D14FF0000880
:104DF0003946D4F8083184F8FF80D4F80C212046D5
:104E00009847D4F82431C4F8008101334746C4F8E8
:104E100024317A1C5B23C4F80021E35584F8043163
:104E20003146EA682046FDF7E5FED4F80071FF2F11
:104E300011D100263946D4F8083184F8FF60D4F83F
:104E40000C2120469847D4F82431C4F8006101337E
:104E50003746C4F824317A1C5D23C4F80021E35599
:104E600084F804316A680599FDF7B7BF591C2922F7
:104E7000C4F80011E25484F804212B783D2B7EF411
:104E800057AAFF290FD10027D4F8083184F8FF7002
:104E9000D4F80C2120469847D4F82431C4F8007186
:104EA0000133C4F82431D4F800212D23511CC4F857
:104EB0000011A35484F80431FEF73ABA8A4FD4F8AB
:104EC000003107F1020A16E0D4F80831D4F80C21B9
:104ED00084F8FF909847D4F824310133C4F8243182
:104EE00000220123BA45C4F8003104F8028084F896
:104EF00004813FF480A9FF2B1946204617F8018B47
:104F0000E2D01A460133EDE7926831462046FDF7BC
:104F100071FED4F8443113B1089BC4F8103194F8F1
:104F200004313C2B00F0C482D4F80071FF2F12D161
:104F30004FF000083946D4F8083184F8FF80D4F8DF
:104F40000C2120469847D4F82431C4F8008101335D
:104F50004746C4F824313C237A1CC4F80021E355A9
:104F600084F80431AB683146DA682046FDF742FE2A
:104F700094F804313E2B00F07D82D4F80071FF2FAD
:104F800011D100263946D4F8083184F8FF60D4F8EE
:104F90000C2120469847D4F82431C4F8006101332D
:104FA0003746C4F824313E237A1CC4F80021E35567
:104FB00084F80431FFF7DCBA4C4FD4F8003107F124
:104FC00005094FF0000A16E0D4F80831D4F80C2196
:104FD00084F8FFA09847D4F824310133C4F8243171
:104FE00000220123B945C4F8003104F8028084F896
:104FF00004813EF441ABFF2B1946204617F8018B84
:10500000E2D01A460133EDE7D4F80071FF2F12D138
:105010004FF0000A3946D4F8083184F8FFA0D4F8DC
:105020000C2120469847D4F82431C4F800A101335C
:105030005746C4F8243120237A1CC4F80021E355D4
:1050400084F80431FEF7DABDD4F820110029FEF609
:1050500099ADFBF7C3FB024600287EF493AD012314
:10506000C4F818316A680599FDF7B7BE05996A68F2
:10507000FDF7B3BE0D221E492046FBF797F9F968EC
:1050800020460131FBF784FC03221A492046FBF736
:105090008DF9BF68FFF7B4B8D4F8000105996A68C4
:1050A000B8427DF49AAE013BC4F80031FDF795BEDD
:1050B00042465B46AB46BBF1040FA0461D46144674
:1050C000C2F8141100F0A382BBF1020F37D1D8F857
:1050D0000CA09AF80030462B00F0278309EB07124A
:1050E0000C3A20E090D60408B4D4040828D604086A
:1050F000B8D40408C8D40408042F3FF41DA89BE8C2
:105100000F008CE80F0000234EF80C3C4EF810AC5A
:10511000019BDAF808A0C4F814C101374EF804BCAA
:105120004EF8083C72469AF80000FBF775F9A2F1B8
:10513000040B02F1100E02F10C0C0028DCD1EA681D
:1051400031462046FDF756FD98F80030042B04BF89
:10515000069BC4F810313F014FF0200AA84609EB26
:10516000070B5BF8085C0DBBD4F80031FF2B204621
:1051700019460ED1D4F80831D4F80C2184F8FF5028
:105180009847D4F82431C4F800515A1CC4F824219B
:105190002B46591CC4F800115BF80C2C04F803A032
:1051A0003146204684F804A100F0BAFB103FD6D166
:1051B000029BC4F814314546FEF7C1BF3146AA68C8
:1051C0002046FDF717FD05996A68FDF706BE0F46F4
:1051D000A946FEF7BBBE44465D46C8F81411FEF76B
:1051E000ABBFEA6831462046FDF704FD0A9B019AF1
:1051F000C4F81421002B3EF419ABFEF71FBB0123AA
:105200006446CCF81831FEF719BBD9F80820FEF730
:10521000ADBE3146AA68204601F0F4F90322BF4929
:105220002046FBF7C3F805996A68FDF7D6BDD4F8A8
:1052300030E1D4F82C21BEF1000F17DD1068814554
:1052400000F0A78102F1080BBC460191704604E012
:1052500052F83C10894500F09D810CF1010C60452D
:10526000DA460BF1080BF3D101998646D4F83431B4
:105270009E4580F244830EF1010302EBCE0CC4F88C
:105280003031D4F8100142F83E900CF1040C0028A3
:1052900000F05B82D4F83C21D4F840319A4202F10C
:1052A000010E80F22C83D4F83831C4F83CE103EBD2
:1052B000C20342685A60CCF8003000689C46E6E7BA
:1052C0000646474601E0FF681FB33B782F2B20D1ED
:1052D000BB68F3B11A784A2A18BF0136F3D199682E
:1052E0002046FBF7A1FA002800F0EF8103782F2B6E
:1052F00040F0EB81836853B1002304E002782F2A49
:1053000005D182681AB1C06801330028F6D11E4465
:10531000D9E731462046FBF73BFB05996A68FDF764
:105320005CBD3146204601F02DF9D4F80071FF2F05
:1053300012D14FF000083946D4F8083184F8FF80C4
:10534000D4F80C2120469847D4F82431C4F80081C1
:1053500001334746C4F824317A1C3C23C4F80021A9
:10536000E35584F80431EB6831469A682046FDF72E
:1053700041FC02226A492046FBF718F8EB683146E7
:10538000DA682046FDF736FCD4F80071FF2F11D102
:1053900000263946D4F8083184F8FF60D4F80C218F
:1053A00020469847D4F82431C4F8006101333746C9
:1053B000C4F824317A1C2923C4F80021E35584F869
:1053C00004316A680599FDF708BD05996A68FDF71B
:1053D00004BD424631462046FDF70CFC05996A683B
:1053E000FDF7FBBC18A9204641F8403DD4F8103128
:1053F000C4F8141141460A960B930995FDF7FAFB80
:105400000A9E089BC4F81431EEB9D4F80071FF2F3E
:1054100010D13946D4F8083184F8FF60D4F80C2153
:1054200020469847D4F82431C4F800610133374648
:10543000C4F8243120237A1CC4F80021E35584F8F1
:105440000431FEF70CBA05996A68FDF7C6BC354908
:10545000B8683CF0ABFA00287EF4C6AB3146EA6887
:105460002046FDF7C7FB02222F492046FAF79EFF90
:10547000FEF709BCD4F80071FF2F11D10026394680
:10548000D4F8083184F8FF60D4F80C2120469847FE
:10549000D4F82431C4F8006101333746C4F824310C
:1054A00020237A1CC4F80021E35584F8043164E514
:1054B000D4F80071FF2F12D14FF000083946D4F80C
:1054C000083184F8FF80D4F80C2120469847D4F89E
:1054D0002431C4F8008101334746C4F82431202325
:1054E0007A1CC4F80021E35584F804311CE54046D9
:1054F0000E4903F039FA002840F0FB81EB68314691
:10550000DA68204601F07EF8FDF760BC05996A680C
:10551000FDF763BC05996A68FDF75FBCB4D6040863
:1055200068D60408CCD40408D4D404086CD4040885
:105530009B689A68012A7DF44EAC5B681B783E2B11
:105540007DF449ACD4F80071FF2F11D10026394603
:10555000D4F8083184F8FF60D4F80C21204698472D
:10556000D4F82431C4F8006101333746C4F824313B
:105570007A1C2923C4F80021E35584F804316A68B1
:105580000599FDF72ABC052A00F2A980573BFFF7D1
:105590001DBA92461A4601E0526842B31168894525
:1055A00003D08D42F8D19A42F6D009F10801204685
:1055B000FBF72AF9814698B199F800302F2B7EF439
:1055C000B6ACD4F820110029FEF6B6AC4846FBF77D
:1055D00005F9814600287EF4AAAC0FB1C4F8108109
:1055E0000123C4F818316A680599FDF7F6BBDAF8AB
:1055F0000430D4F81081C4F8103109F108012046B4
:10560000FBF702F9012781460028D5D1E6E718AB60
:10561000019A43F8482DCDF81C80C4F810318EE56E
:10562000EB6893F80090B9F1000F7DF43FAE3D2890
:1056300000F0E6803146EA682046A8F10208FDF74E
:10564000D9FAB8F1040F00F2D780DFE808F0B4937C
:105650008A813500D8F808203146204600F0D2FF74
:105660004A463146204600F08DFF05996A68FDF7ED
:10567000B4BB41462046FBF7D7F8A8B103782F2BDF
:1056800012D1836883B1C0680137F6E7D8F80830D3
:105690001A78012A7FF4D2AAD8F80C201278292A85
:1056A00008BF9846FFF7CABA39462046FBF770F99B
:1056B00005996A68FDF791BB032294492046FAF7E1
:1056C00075FE05996A68FDF788BB00231E44FAE55C
:1056D0004A463146204600F055FFFDF7A9BE5F2B34
:1056E000D4F800117FF464A9FF283FF661A9FF29CF
:1056F0005FFA80F90FD1D4F8083184F8FF80D4F82C
:105700000C2120469847D4F82431C4F80081013395
:10571000C4F8243100214B1CC4F80031574604F86A
:10572000019084F80491FFF735B9DAF808A0BAF1CE
:10573000000F3EF401ADD1E4052275492046FAF789
:1057400035FE05996A68FDF748BBCCF800002CE7E8
:10575000022270492046FAF729FE05996A68FDF78A
:105760003CBB02226C492046FAF720FE05996A6884
:10577000FDF733BBD4F80071FF2F11D10026394655
:10578000D4F8083184F8FF60D4F80C2120469847FB
:10579000D4F82431C4F8006101333746C4F8243109
:1057A0007A1C6C23C4F80021E35584F804316A683C
:1057B0000599FDF712BBD4F80071FF2F11D1002617
:1057C0003946D4F8083184F8FF60D4F80C2120461B
:1057D0009847D4F82431C4F8006101333746C4F83F
:1057E00024317A1C7523C4F80021E35584F8043170
:1057F0006A680599FDF7F1BA05996A68FDF7EDBA8F
:10580000D4F80071FF2F10D13946D4F8083184F84C
:10581000FF90D4F80C2120469847D4F82431C4F8DE
:10582000009101334F46C4F824312D237A1CC4F86B
:105830000021E35584F80431FCE69A689168012957
:105840007DF469AA526812783E2A7DF464AAD4F8DD
:105850000071FF2F10D184F8FF003946D4F80831C9
:10586000D4F80C2120469847D4F82431C4F800819C
:1058700001334746C4F8243128237A1CC4F8002198
:10588000E35584F80431AB68FDF745BA5A46314612
:10589000204600F0B7FE3A463146204600F072FE40
:1058A00052463146204600F0ADFE03221B492046F9
:1058B000FAF77CFD4A463146204600F0A3FE0599E2
:1058C0006A68FDF78ABA05996A68FDF786BA05998C
:1058D0006A68FDF782BAD3681B78292B1CBF0123A5
:1058E000C4F8183192683146204600F08BFEFDF76F
:1058F00022BA3A463146204600F044FEFEE5012336
:10590000C4F818316A68FDF768BA00BF84D6040885
:1059100088D6040880D604087CD6040870D604080B
:105920001378033B2DE9F047154604460E464C2BF1
:1059300000F2C882DFE813F07500C602C602C60294
:10594000C602C602C602C602C602C602C602C60217
:10595000C602C602C602C602C602C602C602C60207
:10596000C602C6027A00A100C8007A00A100C800E1
:10597000EE000A01260148016601790252029F02E7
:10598000C602C602C602C6028401C602CC01C60215
:10599000C602C602C602C602C602C602C602C602C7
:1059A000C602C602C602C602C602C602C602C602B7
:1059B000C602C602C602C602C602C602C602C602A7
:1059C000C602C602C602C602C602F401C6022A0206
:1059D0004D00D74FD0F8003107F106084FF000090D
:1059E00016E0D4F80831D4F80C2184F8FF909847D9
:1059F000D4F824310133C4F824310022012347456F
:105A0000C4F8003104F802A084F804A100F05F8219
:105A1000FF2B1946204617F801ABE2D01A46013396
:105A2000EDE7AA68BDE8F047FDF7E4B8C14DD0F84E
:105A3000003105F10906002716E0D4F80831D4F842
:105A40000C2184F8FF709847D4F824310133C4F84E
:105A5000243100220123AE42C4F8003104F8028050
:105A600084F8048100F0EA80FF2B1946204615F8DF
:105A7000018FE2D01A460133EDE7AF4DD0F8003187
:105A800005F10906002716E0D4F80831D4F80C21F6
:105A900084F8FF709847D4F824310133C4F82431D6
:105AA00000220123AE42C4F8003104F8028084F8D9
:105AB000048100F0C380FF2B1946204615F8018FA2
:105AC000E2D01A460133EDE79C4DD0F80031AE1D0F
:105AD000002716E0D4F80831D4F80C2184F8FF70C0
:105AE0009847D4F824310133C4F82431002201232B
:105AF000B542C4F8003104F8028084F8048100F053
:105B00009D80FF2B1946204615F8018BE2D01A46DE
